:020000040001F9
:10C00000B0F40020B1C50100B9C50100BBC50100F5
:10C01000BDC50100BFC50100C1C501000000000091
:10C02000000000000000000000000000C3C5010087
:10C03000C5C5010000000000C7C50100C9C5010059
:10C04000CBC50100CBC50100F9D4010025D2010008
:10C050003DD20100CBC501004DCC0100CBC5010094
:10C06000CBC50100CBC50100CBC50100CBC501008C
:10C07000CBC50100CBC50100CBC50100CBC501007C
:10C08000CBC5010005CE0100CBC50100CBC5010029
:10C0900069D20100CBC5010071D20100CBC50100FE
:10C0A000CBC50100CBC50100CBC50100CBC501004C
:10C0B000CBC50100CBC5010000000000000000005E
:10C0C000CBC50100CBC50100CBC5010051D2010099
:10C0D000CBC50100CBC5010031CC01000000000040
:10C0E0000000000000000000000000000000000050
:10C0F0000000000000000000000000000000000040
:10C10000000000000000000000000000000000002F
:10C11000000000000000000000000000000000001F
:10C40000DFF80CD000F0D2FB00480047C142020028
:10C41000B0F40020401E00BF00BF00BF00BF00BF3F
:10C4200000BF00BF00BF00BF00BF00BF00BF00BF14
:10C4300000BF00BF00BF00BF00BF00BF00BF00BF04
:10C4400000BF00BF00BF00BF00BF00BF00BF00BFF4
:10C4500000BF00BF00BF00BF00BF00BF00BF00BFE4
:10C4600000BF00BF00BF00BF00BF00BF00BF00BFD4
:10C4700000BF00BF00BF00BF00BF00BF00BF00BFC4
:10C4800000BF00BF00BFC5D170470000401E00BF05
:10C4900000BF00BF00BF00BF00BF00BF00BF00BFA4
:10C4A00000BF00BF00BF00BF00BF00BF00BF00BF94
:10C4B00000BF00BF00BF00BF00BF00BF00BF00BF84
:10C4C00000BF00BF00BF00BF00BF00BF00BF00BF74
:10C4D00000BF00BF00BF00BF00BF00BF00BF00BF64
:10C4E00000BF00BF00BF00BF00BF00BF00BF00BF54
:10C4F00000BF00BF00BF00BF00BF00BF00BFC5D16D
:10C5000070470000401E00BF00BF00BF00BF00BF5B
:10C5100000BF00BF00BF00BF00BF00BF00BF00BF23
:10C5200000BF00BF00BF00BF00BF00BF00BF00BF13
:10C5300000BF00BF00BF00BF00BF00BF00BF00BF03
:10C5400000BF00BF00BF00BF00BF00BF00BF00BFF3
:10C5500000BF00BF00BF00BF00BF00BF00BF00BFE3
:10C5600000BF00BF00BF00BF00BF00BF00BF00BFD3
:10C5700000BF00BF00BFC5D170470000056885F34C
:10C5800008884068FF2464B2EFF30585002D01D1CF
:10C59000A64600472546064621273FBAF0B40024A8
:10C5A000002500260027F0B4F92040B20047000023
:10C5B0000648804706480047FEE7FEE7FEE7FEE73D
:10C5C000FEE7FEE7FEE7FEE7FEE7FEE7B9D2010081
:10C5D00001C40100DFED1D0AB5EEC00A60EE200ABD
:10C5E000BDEEE01A11EE100AF1EE10FA38BF401E4F
:10C5F00000EE100AB8EEC00A30EEC00ADFED140AF1
:10C6000020EE200AB4EEE00AF1EE10FAA8BF30EEF8
:10C61000600AFCEEC00A0F49F7EE001A10EE900A0D
:10C62000C0F3080000EE900A01EB8000F8EE600A0B
:10C6300090ED011A70EE600A90ED000A71EEE01ABA
:10C6400021EE800A00EE810A7047000083F9223E45
:10C65000000000449C8E020070B5044604982180BE
:10C6600008448000011F1D461846A26000F096F89D
:10C67000656070BD8A0817D0B2F1004F31D2002A30
:10C68000C4BF034694460FDDF0EE400AC3ED000A36
:10C69000C3ED010AC3ED020AC3ED030A1033BCF176
:10C6A000010CF1D100EB021011F0030108BF70473B
:10C6B000B1F1004F23D20029D8BF7047021F11F0FB
:10C6C000010F1CBF82ED010A121D480808BF704708
:10C6D00082ED010A82ED020A401E02F10802F7D142
:10C6E0007047F0EE400AC0ED000AC0ED010AC0ED4F
:10C6F000020AC0ED030A1030521EF2D1D4E7A0ECBA
:10C70000010A491EFBD170472DE9F05F0546002064
:10C7100092469B4688460646814640241BE02846B2
:10C7200041464746224600F014F953465A46C01A7D
:10C73000914110D311461846224600F0FBF82D1AFD
:10C7400067EB01084F4622460120002100F0F2F875
:10C7500017EB00094E41201EA4F10104DFDC48461E
:10C7600031462A464346BDE8F09F40EA01039B0755
:10C7700003D009E008C9121F08C0042AFAD203E056
:10C7800011F8013B00F8013B521EF9D27047D2B2BA
:10C7900001E000F8012B491EFBD270470022F6E7AA
:10C7A00010B513460A4604461946FFF7F0FF204627
:10C7B00010BD30B504460020034600E05B1C9342E8
:10C7C00003D2E05CCD5C401BF8D030BD034611F8CD
:10C7D000012B00F8012B002AF9D1184670472DE9EA
:10C7E000FE4F81EA030404F0004421F0004100946C
:10C7F0004FF0000B23F0004350EA01045ED052EAF0
:10C8000003045BD0C3F30A54C1F30A552C44A4F2C9
:10C81000F3340194A0FB0254C1F3130141F48011DD
:10C82000C3F3130343F4801301FB024400FB034EE4
:10C83000840A970A44EA815447EA8357A4FB0768AD
:10C8400002958D0A05FB07854FEA932C04FB0C54D7
:10C850002705029D4FEA065847EA1637B5EB08054B
:10C860006EEB070C870E920E47EA811742EA83129D
:10C87000A7FB0201B6EB0B0164EB00042B0D43EAAE
:10C880000C335E1844EB1C50DA465146E7FB0201BC
:10C89000C5F313044FEA0B3343EA14534FEA04324F
:10C8A000019C43EA0603A4F10C040294009CCDE928
:10C8B00000B400F06DF803B0BDE8F08F0020014631
:10C8C000F9E70EB540F2334102910021CDE90011A4
:10C8D0000A460B4600F05CF803B000BDC1F30A52F3
:10C8E00010B5C1F3130140F2FF3341F480119A42B5
:10C8F00001DA002010BD40F233439A42A2F23342E3
:10C9000003DC524200F025F810BD904010BD00F04D
:10C91000004230F000400AD0C10D01F56071C0F353
:10C92000160042EA0151C208400711437047002037
:10C9300001467047202A04DB203A00FA02F1002069
:10C9400070479140C2F1200320FA03F3194390404D
:10C950007047202A04DB203A21FA02F000217047B8
:10C9600021FA02F3D040C2F1200291400843194657
:10C97000704710B5141E73F1000408DA401C41F131
:10C98000000192185B411A4301D120F0010010BD53
:10C990002DE9F04D92469B4611B1B1FA81F202E0C9
:10C9A000B0FA80F220329046FFF7C4FF04460F46EB
:10C9B00040EA0A0041EA0B0153465A46084313D0A5
:10C9C000114653EA010019D0C8F140025046FFF762
:10C9D000C0FF05460E46504659464246FFF7AAFF9D
:10C9E000084305D0012004E020463946BDE8F08D1B
:10C9F0000020054346EAE0762C4337430A98630556
:10CA0000E40AA0EB08000022FD0A44EA47540A3079
:10CA100002D500200146E9E7010510196941DDE969
:10CA2000084500196941BDE8F04DA2E72DE9FE4F28
:10CA3000804681EA0300C00F0C46009021F00041BF
:10CA400023F00045B8EB0200A94105D2404621463B
:10CA500090461C460B46024623F00040104347D048
:10CA6000270DC7F30A00C3F30A510290401A019040
:10CA700040286BDAC3F3130040F4801B0098924601
:10CA800020B10023D2EB030A63EB0B0B019859464C
:10CA9000C0F140025046FFF74DFF06460D46504696
:10CAA0005946019A00F094F810EB08006141002407
:10CAB00087EA115284EAE7731A4340D0009A62B3BE
:10CAC000019A012A4FEA075215DC001B61EB0201B3
:10CAD0004FF0004202EA0752CDE90042001C41F546
:10CAE000801132462B46FFF753FF03B0BDE8F08FAD
:10CAF00040462146F9E7001B61EB0201001C41F5AD
:10CB0000801300185B412018A2F5001747EB0301C2
:10CB100040EAD570B6196D4111E06D084FEA36064E
:10CB200045EAC0754FEA0752001B61EB0201001C89
:10CB300041F5801149084FEA300000195141324651
:10CB40002B4603B0BDE8F04FFFF713BF009801225A
:10CB500040000023D0EB020263EBE0730098214613
:10CB60004FEAE074B8EB000061EB0401E9E783F001
:10CB700000435BE781F0004158E7000030B5041E38
:10CB800071F1000404DB4FF00044404264EB01010A
:10CB9000141E73F1000405DB1C464FF000435242A3
:10CBA00063EB0403994208BF904230BD064C074D29
:10CBB00006E0E06840F0010394E80700984710346D
:10CBC000AC42F6D3FFF720FCE8960200089702007B
:10CBD000202A06DBCB17203A41FA02F043EAE07341
:10CBE00006E041FA02F3D040C2F12002914008432E
:10CBF0001946704730B58C1810F8012B12F00F034E
:10CC000001D110F8013B120906D110F8012B03E005
:10CC100010F8015B01F8015B5B1EF9D101E001F83E
:10CC2000013B521EFBD1A142E6D3002030BD0000E3
:10CC30000549096801F1400000BFF1EE101A0168D2
:10CC400021F09F010160704738EF00E02DE9F04FBF
:10CC500087B00027BA464FF4807006900125002463
:10CC600012E0069808F0FEFA40B100BF6048006884
:10CC7000284018B1069808F0E7FA2F436D0006988F
:10CC8000001D80B20690641C082CEAD34FF4BE70DD
:10CC900008F0E8FA48B14FF4BE7008F0D5FA47F052
:10CCA000004700BF534800688246F8B2F8B101253A
:10CCB00000241AE005EA0700A8B100BF4E4850F86A
:10CCC0002400C0F30420064600BF4B4850F824005F
:10CCD000C0F301408046204603F0D8FE814641461D
:10CCE0003046C84700BF6D00641C082CE2D307F033
:10CCF0000040002879D04FF0000B00200590401E26
:10CD0000049000BF4FF0000B002457E03B48005D4B
:10CD10000390039820F0C00638480057401C0028B4
:10CD20004BD00120B04004990840002845D003981A
:10CD30004FEA9019304603F0F1FE804603F0A6FE5C
:10CD40000290029810B9B9F1030F35D1012000FA11
:10CD500006F5B9F1030F02D105982843059000BFED
:10CD6000274850F82600C0F3014800BF05EA0A0032
:10CD700010B1B8F1020F05D005EA0A00D8B9B8F130
:10CD8000030F18D1B9F1030F0FD1B8F1020F01D180
:10CD9000032000E0022001903046019908F01CFABF
:10CDA0000BF1010000F0FF0B00BF029818B14946DB
:10CDB0003046029A904700BF00BF641C042CA5D3E4
:10CDC000BBF1000F0DD000BF0A4909680846504565
:10CDD00003D14FF0000B03E007E082460599049170
:10CDE00000BFBBF1000F8DD100BF07B0BDE8F08FD1
:10CDF000046300401005005010650040E8C90020A1
:10CE00000007005010B500200949086000210948BA
:10CE1000C0F84411C0F84811C0F84C110020054971
:10CE2000C1F8000102493C3908600AF0E7FF10BD73
:10CE300040110140001001402DE9F04704460E4624
:10CE400017469846DDF8209000BF1F48007808B9C3
:10CE500000F05EFB00BF1C484069A0422ED900BF15
:10CE60000CB304EB44011848483040F8316004EB3F
:10CE7000440100EBC100476004EB44011248483014
:10CE800000EBC100C0F80880002104EB44020E480A
:10CE9000483000EBC200016104EB44020A4848300C
:10CEA00000EBC200C16004EB44010748483000EBCE
:10CEB000C100C0F8149000BF002501E04FF0FF351D
:10CEC0002846BDE8F087000028D400202DE9F0476F
:10CED00004460E4617469846DDF8209000BF1F48CE
:10CEE000007808B900F014FB00BF1C480069A0429C
:10CEF0002ED900BF0CB304EB44011848183040F899
:10CF0000316004EB440100EBC100476004EB4401D5
:10CF10001248183000EBC100C0F80880002104EB73
:10CF200044020E48183000EBC200016104EB4402D9
:10CF30000A48183000EBC200C16004EB4401074806
:10CF4000183000EBC100C0F8149000BF002501E0CC
:10CF50004FF0FF352846BDE8F087000028D40020B8
:10CF60002DE9F04104460D46164600BF08480078FA
:10CF700008B900F0CDFA00BF00BF3246294620466E
:10CF800000F008F8074600BF3846BDE8F081000011
:10CF900028D400202DE9F047074688461646C246A9
:10CFA00007EB47011B4800EBC109D9F8140020B179
:10CFB000012811D0022826D11EE0484600F0E0FAF0
:10CFC0000546B54201D2002405E0344632465146BA
:10CFD000484600F02AFC18E0484600F0D1FA054621
:10CFE000B54201D2284600E030460446224651466A
:10CFF000484600F01AFC08E032465146484600F028
:10D00000DBFB044601E0002400BF00BF2046BDE872
:10D01000F087000040D400202DE9F04F99B08246FF
:10D020000D46144603A81490402015900020169039
:10D03000CDF860A0179000BF2E786D1C06B9DDE01A
:10D04000252E79D100274FF0010900BF2E78232E1D
:10D0500012D02B2E0CD02D2E02D0302E10D103E06A
:10D0600047F001076D1C0EE047F002076D1C0AE057
:10D0700047F004076D1C06E047F008076D1C02E04E
:10D080004FF0000900BF00BFB9F1000FDED14FF033
:10D09000000800BF2E78302E01DB392E00DD07E0BE
:10D0A0006D1CA6F1300008EB880100EB4108F1E7A8
:10D0B00000BF002013902E782E2E12D16D1C00BFC1
:10D0C0002E78302E01DB392E00DD09E06D1CA6F133
:10D0D0003000139901EB810100EB41001390EFE761
:10D0E00000BF2E7800BF6C2E01D0682E02D12E78A2
:10D0F0006D1C00E000E0F6E700BF702E5DD008DC9C
:10D10000252E6AD0582E35D0632E09D0642E69D1D1
:10D1100013E0732E3CD0752E1DD0782E62D128E0FE
:10D120002168081D2060D1F8009009F0FF0B5946D6
:10D1300014A800F01FFB56E058E02168081D20608D
:10D14000D1F80090CDE900870A22494614A8139B24
:10D1500000F024FA47E02168081D2060D1F8009013
:10D16000CDE900870A22494614A8139B00F08CFAE7
:10D1700039E000BF2168081D2060D1F80090CDE99A
:10D1800000871022494614A8139B00F07DFA2AE07C
:10D190002168081D2060D1F800B000BF9BF8006036
:10D1A0000BF1010B06B906E0314614A800F0E2FAD3
:10D1B00017980028F2DA00BF15E02168081D2060EA
:10D1C000D1F80090002008210B461022CDE9001074
:10D1D000494614A800F058FA05E0252114A800F0EB
:10D1E000C9FA00E000BF00BF6D1C03E0314614A87F
:10D1F00000F0C0FA17980028BFF61EAF00BF1798BE
:10D2000000280ADD169820B103A95046169AFFF7A8
:10D21000A7FEDDE9161008441790179819B0BDE86D
:10D22000F08F000010B5034C2146034806F0B8FD0E
:10D2300010BD0000F0C900200030004010B50349C7
:10D240004FF0402006F0BDFD10BD000074C6002068
:10D2500010B5034C2146034806F0A2FD10BD0000A6
:10D2600010CA00200030024010B50AF0DFFC10BDEB
:10D2700070B50B48006880B10948006880470446D3
:10D2800000BF25463DB100BF064A4FF4B3712846A2
:10D2900000F045FE00BF00BF01E006F0FBFC70BDE2
:10D2A000EC210020A0960200014802490860704766
:10D2B0000090D0030422002010B505F0E3FD10B16A
:10D2C00081488249486705F0F5FD28B1804800682B
:10D2D000C0F342307F49086005F016FE28B17E4851
:10D2E000006820F080707C49086005F025FE48B198
:10D2F00000207A4908604FF08041C1F8100175495B
:10D30000091F086005F042FE18B10320714964311D
:10D31000086005F053FE68B10520714908600120DE
:10D320006F497831086000206D49083108603F205E
:10D33000091F086005F05AFE002855D069480068AA
:10D34000694908606748001D0068091D0860654854
:10D3500008300068091D086062480C300068091D2B
:10D360000860604810300068091D08605D4814308E
:10D370000068091D08605B48183000685A49203170
:10D38000086058481C300068091D08605548203066
:10D390000068091D0860534824300068091D0860B2
:10D3A000504828300068091D08604E482C3000683D
:10D3B000091D08604B48303000684B494031086017
:10D3C000484834300068091D086046483830006815
:10D3D000091D086043483C300068091D0860414849
:10D3E00040300068091D08603B487438006840F40C
:10D3F000700039497439086000BF00BF00BFBFF337
:10D400004F8F00BF00BF00BF00BF00BF00BFBFF312
:10D410006F8F00BF00BF00BF3448006800F00100FC
:10D42000F0B101203249086000BF3248006800288E
:10D43000FBD02E48006820F001004FF01021C1F809
:10D440000C0200BF2B4800680028FBD000202849B0
:10D45000086000BF274800680028FBD000F04AFAA7
:10D4600022480C38006800F0004028B91F480838EE
:10D47000006800F0004018B301201D49086000BF9B
:10D480001C4800680028FBD0152018490C3908609A
:10D4900000BF184800680028FBD015211348083841
:10D4A000016000BF134800680028FBD0002010492D
:10D4B000086000BF0F4800680028FBD000F01AFA8F
:10D4C000FFF7F2FE10BD00000DF0ADBA00C007403E
:10D4D000440200103C050040FCED00E00C0100405F
:10D4E000105600400404001020C500400C1200102B
:10D4F00004E5014000E4014010B50448007F10B18C
:10D500000BF026F901E00BF073F810BD30CA0020D3
:10D5100010B5124C02202061606111A0A061134976
:10D52000E1614FF4806121620021A1626162E162E8
:10D530000BA0A0640E49E164102121650021A165C2
:10D540006165E1650BA1E01DFFF740F90AA12046E6
:10D55000FFF73CF92020A07110BD000028D4002066
:10D560005465726D696E616C0000000018D0002077
:10D5700018D40020525454005345474745520000E8
:10D5800010B501460A69CB689A4204D88C68641EBB
:10D59000E41AA01801E0D41A601E10BD2DE9FC5F4A
:10D5A00006460F4692469846DDE90C45002F01DA03
:10D5B000784200E0384683464FF0010903E09BFBC8
:10D5C000FAFB09F10109D345F9DAC84500D9C1468A
:10D5D00034B1002F03DB05F00400042800D1641EE1
:10D5E00005F0020010B1B8F1000F11D005F00100F4
:10D5F00070B96CB108E0641E2021304600F0BAF822
:10D60000F068002800DA02E00CB1A145F3D300BFB6
:10D61000F068002836DB002F05DA7F422D213046E6
:10D6200000F0A8F807E005F00400042803D12B213E
:10D63000304600F09FF8F068002823DB05F0020078
:10D64000022814D105F0010088B9B8F1000F0ED1FD
:10D650006CB108E0641E3021304600F08BF8F068B1
:10D66000002800DA02E00CB1A145F3D300BFF06856
:10D67000002807DB4346524639463046CDE900458F
:10D6800000F002F8BDE8FC9F2DE9FC5F804689466A
:10D6900015461E460C9CCDF804900127BB4605E0BC
:10D6A0000198B0FBF5F001900BF1010B0198A84235
:10D6B000F6D25E4500D9B3460D9800F00100D0B90E
:10D6C000CCB10D9800F00200022803D116B9302029
:10D6D000009001E02020009009E0641E404600997F
:10D6E00000F048F8D8F80C00002800DA02E00CB18D
:10D6F000A345F2D300BFD8F80C00002835DB09E0C1
:10D70000012E01D9761E04E0B9FBF7FAAA4500D232
:10D7100001E06F43F4E700BF00BFB9FBF7FA0AFB73
:10D720001799134810F80A10404600F023F8D8F86B
:10D730000C00002800DA03E0B7FBF5F7002FECD16E
:10D7400000BF0D9800F0010078B174B109E0641ECB
:10D750002021404600F00EF8D8F80C00002800DA2E
:10D7600002E00CB1A345F2D300BFBDE8FC9F00006E
:10D770008C8E020070B504460E46A568681C616870
:10D78000814206D320684655681CA060E068401CB2
:10D79000E060D4E9011088420DD1A26821682069B7
:10D7A000FFF7DEFBA168884203D04FF0FF30E06056
:10D7B00001E00020A06070BD2DE9F04704468946D5
:10D7C00017464FF0000AE56800BFD4F81080A8455E
:10D7D00003D9A8EB0500461E04E0A5EB0800401C99
:10D7E000A1680E1AA068401BB04201D9304601E082
:10D7F000A068401B0646BE4201D2304600E03846D3
:10D8000006466168481932464946FEF7AEFFB24403
:10D81000B144BF1B3544A068A84200D10025E56093
:10D82000002FD2D15046BDE8F0872DE9F0470446DD
:10D8300089461546E668A068871BAF4208D961682B
:10D8400088192A464946FEF790FF7019E06010E0FB
:10D85000B8466168881942464946FEF786FFA5EB3F
:10D86000070809EB070142466068FEF77EFFC4F82F
:10D870000C80BDE8F0870000002807DB00F01F02E5
:10D8800001219140024A430942F8231070470000E9
:10D8900080E200E0002809DB00F01F020121914036
:10D8A0004209920002F1E022C2F800117047000024
:10D8B000002807DB00F01F0201219140024A4309C2
:10D8C00042F823107047000000E200E010B5002885
:10D8D00004DB4A07130E054A135406E04A07140EE8
:10D8E000034A00F00F031B1FD45410BD00E400E0F6
:10D8F00018ED00E000BF00BF00BFBFF34F8F00BFB7
:10D9000000BF00BF0948006800F4E0600849084310
:10D91000001D0649086000BF00BF00BFBFF34F8F66
:10D9200000BF00BF00BF00BF00BFFDE70CED00E07F
:10D930000000FA05000000002DE9F0412DED020B7A
:10D940009FED3D0B2DED028B9FED3D8BDDE90254EC
:10D95000C4F30A50A0F2FF36142E37DA002E18DA7C
:10D9600053EC102B9DED020B51EC100BFFF75EF802
:10D9700053EC182BFFF702F957D2002CA4BF002458
:10D98000254652DA24F00040284318BF2E4C4CD0D4
:10D990001AE02E4820FA06F704EA070028431FD0B1
:10D9A00053EC102B9DED020B51EC100BFFF73EF8E2
:10D9B00053EC182BFFF7E2F837D2002C03DA4FF4C0
:10D9C0008010F0400444BC4300252EE0332E07DCD9
:10D9D000A6F114004FF0FF3121FA00F73D4206D1C5
:10D9E0009DED020BBDEC028B02B0BDE8F08153EC63
:10D9F000102B9DED020B51EC100BFFF7BBF853EC15
:10DA0000182BFFF7BBF810D2002C0DDA142E08BF2C
:10DA1000641C09D0C6F13400012101FA00F0284449
:10DA2000A84238BF641C0546BD43CDE902549DEDB4
:10DA3000020BD7E7000000009C7500883CE4377EAD
:10DA400000000000000000000000F0BFFFFF0F001A
:10DA500002E008C8121F08C1002AFAD170477047B7
:10DA6000002001E001C1121F002AFBD170472DE9FF
:10DA7000FC41044688461646002537880020308041
:10DA8000606B68B1616B08783B463246414609F0ED
:10DA9000BDFA054600BF15B12846BDE8FC8100BFB0
:10DAA000206B58B13B4632464146206B0AF02CFAB7
:10DAB000054600BF0DB12846EFE700BF94F82E00E1
:10DAC00060B194F82E003B463246414606F078FAA3
:10DAD000054600BF0DB12846DFE700BF94F82D00D2
:10DAE00050B13A463146404601F05EFD054600BF62
:10DAF0000DB12846D1E700BFA07850B13A46314673
:10DB0000404600F05DFB054600BF0DB12846C4E766
:10DB100000BFE07860B1E17848B23B46324641460A
:10DB200005F0B7FA054600BF0DB12846B5E700BFBE
:10DB3000606868B1616891F900003B463246414631
:10DB40000AF03AFD054600BF0DB12846A5E700BF23
:10DB5000208900280EDD43460622022104F1080038
:10DB6000CDE900670AF048FF054600BF0DB1284621
:10DB700093E700BF208A00280EDD434607220321D9
:10DB800004F11000CDE900670AF036FF054600BF3A
:10DB90000DB1284681E700BF208B00280EDD4346EB
:10DBA0001522142104F11800CDE900670AF024FFC2
:10DBB000054600BF0DB128466FE700BF206A58B187
:10DBC0003B4632464146206A03F0E7FA054600BF6D
:10DBD0000DB1284661E700BF606A58B13B46324646
:10DBE0004146606A06F030FC054600BF0DB128468C
:10DBF00053E700BF94F82C0000280BDD3B4632466B
:10DC00004146204609F0B3FA054600BF0DB128464B
:10DC100043E700BF207858B13B4632464146204694
:10DC200006F044FF054600BF0DB1284635E700BFAA
:10DC3000284632E70146C87800F0040008B90720FA
:10DC400070470020FCE710B501220221002002F0FD
:10DC50008DFA044600BF1CB1072C01D0204610BD30
:10DC600000BF07220221012002F080FA044600BF13
:10DC70001CB1072C01D02046F1E700BF0A22002189
:10DC8000084602F073FA044600BF1CB1072C01D00D
:10DC90002046E4E700BF0020E1E7000030B599B07E
:10DCA00038210BA8FEF77AFD02208DF82C00012008
:10DCB0008DF82E0006208DF82F000120ADF83C00D5
:10DCC00011491091242102A8FEF768FD01208DF86A
:10DCD000140064200690002007900C4B02AA014615
:10DCE00000900BA800F0D6FF044600BF25463DB1CA
:10DCF00000BF07A240F2B931284600F010F900BF7A
:10DD000000BF19B030BD0000FC1F002035530200D9
:10DD10006D61696E2E63000070B574DF044600BF4C
:10DD200025463DB100BF0CA240F2E711284600F0A5
:10DD3000F6F800BF00BF002002F046FA044600BF1C
:10DD400025463DB100BF04A24FF4F571284600F00E
:10DD5000E6F800BF00BF70BD6D61696E2E63000004
:10DD6000014600BF064A10684FF400228243044B6C
:10DD70001B1D1A6000F400221B1D1A6000BF7047B3
:10DD80000405005010B5002407E00749096811F8A0
:10DD90003400012106F03CFF641C044800788442F2
:10DDA000F3D3002010BD0000A8210020AC210020EA
:10DDB0002DE9F84306460C461746052F02D20720E8
:10DDC000BDE8F88307F024F838B906F0F7FF0546F8
:10DDD00000BF0DB12846F3E700BF1648066016489D
:10DDE000047016480760002015490860154908604E
:10DDF00015E006EBC40814480068009098F802008B
:10DE00008DF8010098F80000104A694606F05CFFA2
:10DE1000054600BF0DB12846D2E700BF00BF201E57
:10DE2000A4F10101CCB2E4D1094A0021094800F073
:10DE300007F9C5E7A8210020AC210020B02100206F
:10DE4000B4210020B8210020888E0200893502000C
:10DE500015150200848E0200FEB5064604200190CE
:10DE6000244802906946304603F0E6FF0446002C41
:10DE700033D12048007800F00100F0B14FF6FF7276
:10DE80000C211D480088A7DF0446B4B143F202000C
:10DE9000844212D0082C10D0801C84420DD0112C4A
:10DEA0000BD043F20140844207D000BF13A240F2DE
:10DEB0000E21204600F033F800BF304603F062FF29
:10DEC000044600BF25463DB100BF0CA240F213211D
:10DED000284600F024F800BF0BE048F240008442DE
:10DEE00007D000BF05A240F21B21204600F017F822
:10DEF00000BFFEBD04200020FA1F00206D61696E86
:10DF00002E63000070B504460D4616460C2002F044
:10DF10005BF932462946204600F012F870BDFEB586
:10DF200004460E461546B0B2ADF8000001950294C5
:10DF30006A46002144F20100FFF7E4FFFEBD000045
:10DF400018B5012300939DF800301E4B18605960EE
:10DF50009A606FF48043034463B1012B19D1194BCC
:10DF6000DA60DB681B88174CA3612346DB685B68BB
:10DF7000E3610EE0134B1A611B699B68114C6361EE
:10DF800023461B691B88A36123461B695B68E36109
:10DF900000BF00BF0B4B1B680A4B5B68094B9B68BB
:10DFA000084BDB68074B1B69064B5B69054B9B699C
:10DFB000044BDB6972B600BF9DF80030002BFBD12B
:10DFC00062B618BD48CB00202DE9F04104460D464D
:10DFD000164604480768324629462046B847BDE839
:10DFE000F081000074C90020F8B505460C4627787A
:10DFF000A06800EB4000064951F820600548006821
:10E0000000902A46394604F108002369B047F8BD5C
:10E010001CCB0020A021002010B504460748007842
:10E0200000EB80020548001D00EB82012046FFF74F
:10E03000DBFF042009F0BCF910BD000050CA00202D
:10E0400010B503460C4600BF0B48006808B908200D
:10E0500010BD00BF0AB90720FAE70BB90720F7E7A0
:10E060001868007C08B10820F2E7196800200874DD
:10E070004C744A6100BFEBE7C02100202DE9F0415C
:10E0800080460E4614461F46204600F0030109B99B
:10E09000012100E0002111B90720BDE8F08124B979
:10E0A00000201D4908600720F7E708F081FE1B48A3
:10E0B000076003201A4908701748046018340025C7
:10E0C0000DE01549096801EBC500002101704170A0
:10E0D0008670446006EB460104EBC1046D1C032D01
:10E0E000EFDB00200F4908600F4908700F490870E6
:10E0F0001420FFF7C1FB06211420FFF7E7FB1420D3
:10E10000FFF7C8FB404608F029FE08F021FE084949
:10E1100008600020C1E70000C0210020D8210020B5
:10E12000BC210020C4210020D4210020D5210020C2
:10E13000C82100202DE9F84304460D46174626461F
:10E1400000BF1148006810B90820BDE8F88300BF7F
:10E150000CB90820F9E7052D01D20720F5E7706911
:10E1600008B90820F1E7707C012801D1284600E0B9
:10E17000002080460AF0FAFB814643462A46314693
:10E18000009709F0EDFDE0E7C021002070B50446DE
:10E19000254600BF0948006808B9082070BD00BFC7
:10E1A0000CB1686908B90820F8E7002028740AF063
:10E1B000DDFB0646294609F001FEEFE7C0210020FD
:10E1C000F8B505460C4617462088001DB84201D90F
:10E1D0000C20F8BD684679DF064600BF0EB1304618
:10E1E000F7E700BF0320218868542088401C208066
:10E1F0001920218868542088401C208020884119DB
:10E20000BDF800000AF040FB21880844208000206F
:10E21000DFE7000070B500224FF480310848006845
:10E22000FFF788FF044600BF25463DB100BF05A2A9
:10E2300040F2A6212846FFF772FE00BF00BF70BD66
:10E24000EC8B02006D61696E2E63000030B58DB0FD
:10E2500000200290002400258DF82800AA208DF8C7
:10E26000290002208DF8200075208DF821000C2057
:10E270008DF818001C208DF8190000208DF8100072
:10E2800050208DF8110000230122194655200AF074
:10E29000D3F802230CAA0021552009F0D7FE8023D1
:10E2A0000022114655200AF0C7F8642006F068FCE9
:10E2B00080230022114655200AF0BEF8642006F0A3
:10E2C0005FFC00231A46194655200AF0B5F80223D0
:10E2D0000CAA0021552009F0B9FE9DF8310000F08C
:10E2E0002000202804D1FDA1002005F0AFFF03E0AD
:10E2F000FEA1002005F0AAFF002313221946552095
:10E300000AF09AF824E002230CAA0621552009F00D
:10E310009DFE9DF831309DF83020F9A1002005F0D8
:10E3200095FF9DF8300000F01000102800D110E09B
:10E33000052006F025FC681C85B2B5F57A7F07DD5F
:10E34000F5A1002005F082FF0120FD49087000E0E2
:10E35000D9E700BFFA480078002878D100250022CC
:10E36000612155200AF038F840223E2155200AF05C
:10E3700033F800223F2155200AF02EF8142006F031
:10E38000FFFB012302AA6021552009F05FFE9DF8E2
:10E390000800C0F1FF000290022303AA402155208B
:10E3A00009F054FE9DF80C109DF80820511A9DF8B4
:10E3B0000D20881AC11700EB11610912A0EB012191
:10E3C000C9B202919DF80D0000F0DF008DF80D003C
:10E3D0009DF80D309DF80C20402155200AF02CF8B6
:10E3E0000A2006F0CDFB9DF80C009DF808100844AB
:10E3F0009DF80D100844C4B2D2A1002005F026FFFC
:10E400002046E11704EB11610912A4EB0121C1F1CF
:10E41000FF01CCB22246D1A1002005F017FF0A204F
:10E4200006F0AEFB22466021552009F0D5FFD2A1AF
:10E43000002005F00BFF012301AA6021552009F0FF
:10E4400005FE0A2006F09CFB9DF8042000E0C4E2D3
:10E45000D1A1002005F0FAFE9DF80400A04204D1ED
:10E46000D5A1002005F0F2FE03E0DAA1002005F0BE
:10E47000EDFE00226121552009F0AEFF52223E211F
:10E48000552009F0A9FF00223F21552009F0A4FFE3
:10E49000142006F075FB012302AA6021552009F023
:10E4A000D5FD9DF80800C0F1FF00029002230BAAE1
:10E4B0004A21552009F0CAFD022309AA4C21552002
:10E4C00009F0C4FD022307AA5021552009F0BEFD22
:10E4D000022305AA5B21552009F0B8FD0A2006F0A9
:10E4E0004FFB9DF82D009DF82C1040EA0122BFA1A2
:10E4F000002005F0ABFE9DF825009DF8241040EAB1
:10E500000122C2A1002005F0A1FE9DF81D009DF88A
:10E510001C1040EA0122C4A1002005F097FE9DF8DE
:10E5200015009DF8141040EA0122C7A1002005F053
:10E530008DFE9DF82C109DF80820511A9DF82D2075
:10E54000891A9DF82420891A9DF82520891A9DF89A
:10E550001C20891A9DF81D20891A9DF81420891AFB
:10E560009DF81520881AC11700EB11610912A0EB64
:10E570000121C9B202919DF829309DF828204A2135
:10E58000552009F059FF0A2006F0FAFA9DF82130CB
:10E590009DF820204C21552009F04EFF0A2006F05E
:10E5A000EFFA9DF819309DF818205021552009F0F8
:10E5B00043FF0A2006F0E4FA9DF811309DF8102080
:10E5C0005B21552009F038FF642006F0D9FA9DF848
:10E5D00028009DF8081008449DF8291008449DF86B
:10E5E000201008449DF8211008449DF81810084494
:10E5F0009DF8191008449DF8101008449DF811105A
:10E600000844C4B297A1002005F020FE2046E1177F
:10E6100004EB11610912A4EB0121C1F1FF01CCB29D
:10E62000224695A1002005F011FE0A2006F0A8FA66
:10E6300022466021552009F0CFFE94A1002005F06C
:10E6400005FE0A2006F09CFA012301AA602155204C
:10E6500009F0FCFC0A2006F093FA9DF8042091A131
:10E66000002005F0F3FD9DF80400A04204D193A121
:10E67000002005F0EBFD03E095A1002005F0E6FD8C
:10E6800000231A461946552009F0D6FE02230CAA8B
:10E690000021552009F0DAFC9DF8310000F020003F
:10E6A000202804D18DA1002005F0D0FD03E093A126
:10E6B000002005F0CBFD002342221946552009F029
:10E6C000BBFEC82006F05CFA00231A461946552006
:10E6D00009F0B2FE02230CAA002123E15365616C0C
:10E6E0006564206D6F64650A000000006E6F742021
:10E6F000696E205365616C6564206D6F64650A0006
:10E70000666C6167303D2025780920666C61673151
:10E710003D2025780A00000074696D6520657863E6
:10E72000656564656420696E20636F6E66696775F0
:10E73000726174696F6E2073657475700A000000F1
:10E740000020002057726974696E67206E6577201B
:10E750006F70436F6E6669670A0000006E65772010
:10E76000636865636B73756D206F70436F6E666968
:10E7700067203D25780A000057726974696E67202A
:10E780006E657720636865636B73756D206F70438A
:10E790006F6E6669670A00006F70636F6E66696707
:10E7A00020636865636B73756D20726561642062B8
:10E7B00061636B3D25780A00577269746520737533
:10E7C000636365737366756C206F70636F6E6669E3
:10E7D000670A00005772697465206661696C206F72
:10E7E00070636F6E6669670A000000006465736994
:10E7F000676E206361706163697479206465666126
:10E80000756C74203D2025780A00000064657369EA
:10E81000676E20656E657267792064656661756CE8
:10E8200074203D2025780A007465726D696E6174EC
:10E830006520766F6C746167652064656661756CD0
:10E8400074203D2025780A00746170657220726121
:10E8500074652064656661756C74203D2025780AB6
:10E860000000000057726974696E67206E6577203A
:10E87000646174610A0000006E65772063686563F7
:10E880006B73756D203D25780A000000577269741E
:10E89000696E67206E657720636865636B73756D5D
:10E8A000200A0000636865636B73756D2072656193
:10E8B00064206261636B3D25780A000057726974B9
:10E8C00065207375636365737366756C0A00000079
:10E8D0005772697465206661696C0A005365616CE2
:10E8E0006564206D6F6465206265666F7265207374
:10E8F0006F66742072657365740A00006E6F742011
:10E90000696E205365616C6564206D6F646520627B
:10E9100065666F726520736F6674207265736574C7
:10E920000A000000552009F091FB9DF8310000F02D
:10E930002000202804D12AA1002005F087FC03E054
:10E940002FA1002005F082FC37A1002005F07EFCFD
:10E9500022E002230CAA0621552009F077FB9DF83E
:10E9600031309DF8302039A1002005F06FFC9DF872
:10E97000300000F0100000B90FE0282006F000F988
:10E98000681C85B2C82D07DD38A1002005F05EFCAB
:10E9900001204049087000E0DBE700BF00231A4671
:10E9A0001946552009F048FD02230CAA00215520E4
:10E9B00009F04CFB9DF8310000F02000202804D124
:10E9C00035A1002005F042FC03E03CA1002005F049
:10E9D0003DFC4FF4FA7006F0D3F80DB030BD0000E6
:10E9E0005365616C6564206D6F6465206166746554
:10E9F0007220736F66742072657365740A0000007C
:10EA00006E6F7420696E205365616C6564206D6F54
:10EA1000646520616674657220736F667420726528
:10EA20007365740A00000000436F6E666967757253
:10EA30006174696F6E206D6F6465207377697463AC
:10EA4000686564206F66660A000000004578697496
:10EA500020666C6167303D2025780920457869740F
:10EA600020666C6167313D2025780A0074696D6508
:10EA700020657863656564656420696E20636F6EE8
:10EA800066696775726174696F6E20657869740A6A
:10EA900000000000002000205365616C6564206D5B
:10EAA0006F646520616674657220636F6E66696766
:10EAB00075726174696F6E0A000000006E6F7420D9
:10EAC000696E205365616C6564206D6F64652061BB
:10EAD0006674657220636F6E6669677572617469CA
:10EAE0006F6E0A0030B50246002015780446401CBF
:10EAF0000D5530BD70B58AB006462C480078012807
:10EB000052D12B48007800284ED1022306AA0421B6
:10EB1000552009F09BFA022305AA1946552009F051
:10EB200095FA022304AA1021552009F08FFA9DF8C6
:10EB300010009DF8111040EA012005B22A461DA1DF
:10EB4000002005F083FB022303AA1C21552009F0B5
:10EB50007DFA022301AA1421552009F077FA022335
:10EB600002AA0621552009F071FA9DF80C008DF8D3
:10EB70001C0007A9164800F09FFB07A9144800F0E5
:10EB800071FB044684B1082C0ED043F20400844289
:10EB90000AD043F20140844206D000BF0DA24111C9
:10EBA0002046FFF7BCF900BF0AB070BD2C20002042
:10EBB000002000206176657261676520637572725E
:10EBC000656E74203D256420206D410A0000000020
:10EBD000682400206D61696E2E6300000246107883
:10EBE00008701088000A48700220704770B504460B
:10EBF0000D46228828466168FDF7B7FD207870BD74
:10EC00002DE9F04192B080460D461F2011901090E2
:10EC1000B8F1000F17D04046FFF70CF8044600BFCC
:10EC20001CB1204612B0BDE8F08100BF11AA08A9AE
:10EC30004046FEF71CFF044600BF0CB12046F1E73A
:10EC400000BF08AE02E0002600201190ADB12846BA
:10EC500008F0ABFD044600BF0CB12046E2E700BF60
:10EC600010AA69462846FEF702FF044600BF0CB111
:10EC70002046D7E700BF6F4602E000270020109033
:10EC8000BDF84000C3B2BDF84400C1B23A463046B8
:10EC900072DFC7E72DE9F04704460F4615461E46CA
:10ECA000DDF8208000BF14B90E20BDE8F08700BF5A
:10ECB00000BF0DB90E20F8E700BF002046490870DC
:10ECC000464806604648C0F8008024222946454848
:10ECD000FDF74BFD00F03EF94348444908604448C5
:10ECE000886038214348FDF759FD20784149087074
:10ECF000A0788870E078C870607848700846D4E9D9
:10ED00000412C0E90412D4E90212C0E90212D4E9E3
:10ED10000612C0E90612606AD8B137483549486220
:10ED200036498160606A00883249496A0880606AB1
:10ED300080883049496A8880002005E0616A8968D6
:10ED4000095C2E4A1154401C2A49496A898881422B
:10ED5000F4D8A06A20B32A492A48816025498862EC
:10ED600027492448806A8160A06A80882149896A8D
:10ED70008880A06A00881F49896A0880002005E011
:10ED8000A16A8968095C1E4A1154401C1949896AA4
:10ED900089888142F4D894F82C00164981F82C0017
:10EDA000206A58B1184813490862206A4088096AE5
:10EDB0004880206A00880F49096A0880606820B18D
:10EDC00012480C4948606068486039460948FFF7B6
:10EDD00017FF8146484668E748210020402100206F
:10EDE0004421002040C7002074C7002064C70020D1
:10EDF00094C7002008C70020B4C70020C0C7002067
:10EE0000ECC70020E0C700204C210020502100204A
:10EE100070B504462088102804D0112809D01B287A
:10EE200063D11BE0A07D012802D1A0883049088071
:10EE30005CE000202F490870A0882D49098888428D
:10EE40000BD1012000F0CAF8054635B12A48006808
:10EE500018B1284628490968884747E0207A0028E1
:10EE600042D126480078012806D0022811D0032874
:10EE70001CD0042836D129E0022000F0AFF8054666
:10EE800035B11D48006818B128461B4909688847F4
:10EE900029E0032000F0A2F8054635B116480068C5
:10EEA00018B128461449096888471CE00320144912
:10EEB0000870042000F092F8054635B10E4800684D
:10EEC00018B128460C49096888470CE000200C4915
:10EED00008700C48006820B10846007809490968A4
:10EEE000884700E000BF00BF00E000BF00BF70BD6A
:10EEF00052210020492100204421002048210020E7
:10EF00003C2100204021002070B504460025022C41
:10EF100002D0032C15D100E000BF0B48007878B177
:10EF20000020094908700948007800F057F80546A4
:10EF300035B10748006818B128460549096888476F
:10EF400000E000BF00BF70BD342100204821002038
:10EF500044210020024800210160818081717047B6
:10EF60003521002010B518480078012829D117480C
:10EF7000007830BB1648007830B174DF044600BF1B
:10EF80000CB1204610BD00BF0120104908700620BA
:10EF90001049C87000210F48FFF732FE044600BF39
:10EFA0000CB12046EEE700BF0948007800F016F8E3
:10EFB000044634B10848006818B12046064909687B
:10EFC00088470020DEE7000040C7002049210020DC
:10EFD0004821002008C700204421002030B587B018
:10EFE00005469548057004F06FF828B10120934953
:10EFF0000870002007B030BDFFF7ACFF90484078A4
:10F0000018B18D48007801280DD08D48807818B14E
:10F0100089480078012806D08948807888B18648D8
:10F02000007802280DD18748006838B10120864950
:10F030000870082083490968884702E00020824957
:10F0400008707D480078012809D17D48407818B1C2
:10F050007E4806F0C3FC10B9022077490870764854
:10F060000078022809D17648807818B1774806F0F0
:10F07000B5FC10B90320704908707148007B30B9A5
:10F080006D480078032802D104206B4908706C4851
:10F09000007E40B968480078042804D10020664901
:10F0A00008706B49087067480068A8B1624800782A
:10F0B000032803D06048007804280DD16048007808
:10F0C00050B16448007838B90120634908700720BE
:10F0D0005C490968884702E000205F4908701821F0
:10F0E00001A8FDF75BFB00208DF8040002908DF86D
:10F0F0000C00049050480078012806D0022813D054
:10F10000032825D0042876D150E05048401E0290B4
:10F1100001208DF804000020ADF81600ADF81400B1
:10F1200001204B49087071E04848401E02900120C0
:10F130008DF804004248008980B2ADF816004048BE
:10F14000808880B2ADF814000220414908705DE06B
:10F150003B48808A80B2ADF816003948008A80B2F8
:10F16000ADF814003D4809F034FDD8B134480078BA
:10F17000C0B138480078A8B902208DF80C00374893
:10F18000049004203649C87000213548FFF738FD47
:10F19000044600BF0CB120462CE700BF05202C49D7
:10F1A000087002E003202A4908702FE02448808B71
:10F1B00080B2ADF814002248008C80B2ADF8160081
:10F1C000264809F006FDE0B11D480078C8B1214885
:10F1D0000078B0B902208DF80C002048049004207B
:10F1E0001F49C87000211E48FFF70AFD044600BFF2
:10F1F00014B12046FEE608E000BF0620144908705E
:10F2000002E004201249087000E000BF00BF0A4875
:10F21000007838B101A873DF044600BF0CB1204666
:10F22000E8E600BF0748006820B1094800780549B2
:10F23000096888470020DDE64821002034210020AD
:10F2400040C70020402100204B2100203621002013
:10F250003C210020492100204A21002064C70020D1
:10F2600008C7002070B58AB004460D460026208BE2
:10F270004FF6FF7188421BD000200690079008903F
:10F28000099001A92846FFF72DFC00902089ADF8D0
:10F29000180001208DF81A00CDF820D00020ADF81C
:10F2A0001C0001A80990208B06A9A6DF064600E0F5
:10F2B000082630460AB070BD30B587B004460D460A
:10F2C00000200590069069462846FFF70BFCADF834
:10F2D00014000020ADF81600CDF818D02189208B3D
:10F2E00005AAA4DF07B030BD70B598B004460D463E
:10F2F000286820604FF6FF702083384B0FCB13AE89
:10F300000FC612A913A863DF064616B1304618B01F
:10F3100070BD9DF848008DF85E004AF6F050ADF8DB
:10F320005C00221D17A90120A0DF06460EB1304661
:10F33000EDE7D5F806000F90D5F80A001090E8899F
:10F34000ADF844002879A0711C2103A8FDF726FA26
:10F3500042F61920ADF80C001420ADF810000AA9EF
:10F360000FA8FFF7BFFBADF812000AA80590A1791E
:10F370009DF8190061F304108DF819009DF819002B
:10F3800020F00200801C8DF8190001208DF81C006F
:10F390008DF81E008DF818000020019002900A20C0
:10F3A0008DF804000120ADF80A00FE208DF805005C
:10F3B00001208DF8080042F20270ADF8060001A8A5
:10F3C0000990A08804F1080203A901F0ADFB0646EC
:10F3D0000EB130469BE7002099E70000048C020044
:10F3E00070B505460C462088102806D0112809D093
:10F3F00050280CD0512814D10EE02146284606F0A2
:10F400005BF80FE02146284606F033F90AE0A11D1B
:10F41000284606F06BFA05E0211D284606F0B3F9F0
:10F4200000E000BF00BF70BD70B505461C22294634
:10F430001248FDF79AF9002011490870286850B168
:10F44000104829680A680260496841607ADF04460A
:10F450003CB1204670BD0B487BDF04460CB1204612
:10F46000F8E74FF6FF700849088000200749087048
:10F47000074A00210748FEF7E3FDEBE70CC8002030
:10F4800068210020542100205E2100205C21002002
:10F49000DD880200048E020070B52DED048B044659
:10F4A0002088102806D011282ED0122834D05028B9
:10F4B0005CD12DE0204606F009F8208BFDF701FA1B
:10F4C00041EC190B9FED2C0B53EC102BFDF787F93A
:10F4D00041EC180BFDF702FA85B2608BFDF7F1F9EC
:10F4E00041EC190B9FED240B53EC102BFDF777F932
:10F4F00041EC180BFDF7F2F986B233462A4620A1FB
:10F50000002004F0A3FE32E0204606F0BFF82EE013
:10F51000204606F037FA2AE0204605F0C1FF208990
:10F52000FDF7CFF941EC190B9FED130B53EC102BAA
:10F53000FDF755F941EC180BFDF7D0F985B260895C
:10F54000FDF7BFF941EC190B9FED0B0B53EC102BA2
:10F55000FDF745F941EC180BFDF7C0F986B23346CB
:10F560002A4607A1002004F071FE00E000BF00BFA2
:10F57000BDEC048B70BD0000000000000000F43FF3
:10F580004D696E3A2025756D73094D61783A2025D5
:10F59000756D730D0A00000010B502480068FEF793
:10F5A000F5FD10BD048E02002DE9FC4105460C4618
:10F5B000174620880930B84202D90C20BDE8FC81EA
:10F5C000684671DF064600BF0EB13046F6E700BF61
:10F5D0000820218868542088401C20801B20218816
:10F5E00068542088401C208020882844DDF80110C1
:10F5F0000160BDF8051081802088801D20809DF865
:10F60000000018B900202188685402E001202188F8
:10F6100068542088401C20800020CFE770B586B059
:10F6200004460E4614B10EB1706810B90E2006B033
:10F6300070BD4FF6FF702080224B0FCB01AD0FC580
:10F6400041F23050ADF81400A91C01A863DF054653
:10F6500000BF0DB12846EAE700BF221D05A9012021
:10F66000A0DF054600BF0DB12846E0E700BF9DF8CA
:10F670001600A071204602F0A6FA054600BF0DB1A3
:10F680002846D4E700BF204602F026FA054600BF10
:10F690000DB12846CBE700BF3146204602F002FB01
:10F6A000054600BF0DB12846C1E700BF7068A062E3
:10F6B000B06808B1B068E06201200349087000201A
:10F6C000B5E70000808D02000221002070B50546DC
:10F6D0000C4605B104B970BDA86AF8B1208810289D
:10F6E00006D011280ED0502807D0512814D10EE092
:10F6F0002146284605F0E6FE0FE02146284606F0A2
:10F700002BF90AE02146284605F0BBFF05E021461B
:10F71000284606F015F800E000BF00BF00BFDAE79A
:10F7200070B586B004460D46164614B90E2006B0D4
:10F7300070BD20884FF6FF71884202D019480078CA
:10F7400008B90820F3E7002001901021BDF804203B
:10F75000501C80B2019014488154BDF80410481C1C
:10F7600080B2019010484554BDF80410481C80B286
:10F7700001900D484654002002900390049005909B
:10F78000208AADF8080001208DF80A000020ADF8AD
:10F790000C0001A8049004480590208802A9A6DF67
:10F7A000C5E70000022100200321002010B5044617
:10F7B000204602F05DFC2046FFF76EFE204600F07A
:10F7C000C7FB21460648FFF781FF2046FFF720FBD5
:10F7D000204605F0DDFD204600F0EEFA10BD0000E9
:10F7E0000822002070B588B004460025608E4FF6D0
:10F7F000FF71884213D000200690079001A801F005
:10F8000031FC064601A80790ADF818600020ADF85D
:10F810001A00618C608E06AAA4DF054600E0082568
:10F82000284608B070BD000070B5CCB004460E4646
:10F8300030682060964860604FF6FF706086954B98
:10F840000FCB47AD0FC546A947A863DF054615B1E5
:10F8500028464CB070BD9DF818018DF82E0145F674
:10F860002250ADF82C0104F108024BA90120A0DFC1
:10F8700005460DB12846ECE71C22311D3FA8FCF7D8
:10F8800074FF142206F150013AA8FCF76EFF1C2108
:10F8900029A8FCF783FF8049804805F0F3F87E48EB
:10F8A000006842787EA1002004F0D0FC1C211BA837
:10F8B000FCF774FF242206F1200112A8FCF755FF83
:10F8C0001C2108A8FCF76AFF1C2101A8FCF766FFB1
:10F8D0001C2122A8FCF762FF4CF62110ADF8A40011
:10F8E0009DF82E018DF8A6001420ADF8A80035A9CA
:10F8F0003FA804F03BFEADF8AA0035A82B909DF878
:10F90000B10020F0100010308DF8B10001208DF80A
:10F91000B6008DF8B0004CF62410ADF820009DF82C
:10F920002E018DF822001120ADF824000FA912A895
:10F9300004F09BFCADF826000FA80A909DF82D005E
:10F9400020F0100010308DF82D0001208DF83200CD
:10F950008DF82C004FF45640ADF804009DF82E01B0
:10F960008DF806000420ADF80800ADF80A005648EE
:10F9700003909DF8110020F00200801C8DF811000A
:10F9800001208DF814008DF810004DF25060ADF894
:10F9900088009DF82E018DF88A000A20ADF88C00B1
:10F9A0000620ADF88E0006F1480024909DF89500E1
:10F9B00020F00200801C8DF895009DF8950020F045
:10F9C000080008308DF8950000208DF894008DF81F
:10F9D000960001208DF897008DF898008DF8990019
:10F9E0004CF62510ADF86C009DF82E018DF86E00D8
:10F9F0001420ADF8700030A93AA806F05BFAADF813
:10FA0000720030A81D909DF8790020F01000103091
:10FA10008DF8790001208DF87E008DF8780020891E
:10FA200004F10A0229A901F07FF805460DB1284624
:10FA30000FE7208904F1120208A901F075F80546C4
:10FA40000DB1284605E7208904F11A0201A901F049
:10FA50006BF805460DB12846FBE6208904F1220229
:10FA600022A901F061F805460DB12846F1E620898A
:10FA700004F12A021BA901F057F805460DB12846EA
:10FA8000E7E606F0E3FA04F06BFF0020E1E6000091
:10FA9000E9560200548D020028200020188C020034
:10FAA0005468652064656661756C742076616C7558
:10FAB00065206F6620636F6E666967206973202515
:10FAC000303278200A0000001C8C020070B58AB029
:10FAD00004460D460026608E4FF6FF7188421BD00B
:10FAE0000020069007900890099001A9284604F08C
:10FAF0003DFD00906089ADF8180001208DF81A00D6
:10FB0000CDF820D00020ADF81C0001A80990608E2F
:10FB100006A9A6DF064600E0082630460AB070BDFA
:10FB200070B505460C462088102806D0112809D04B
:10FB300050280CD0512814D10EE02146284605F05B
:10FB4000BEFC0FE02146284605F097FD0AE0A11D06
:10FB5000284605F0E6FE05E02146284605F01AFE97
:10FB600000E000BF00BF70BD70B58AB004460D460E
:10FB70000026608E4FF6FF7188421BD00020069051
:10FB800007900890099001A9284606F093F9009083
:10FB9000608DADF8180001208DF81A00CDF820D046
:10FBA0000020ADF81C0001A80990608E06A9A6DF10
:10FBB000064600E0082630460AB070BD70B586B033
:10FBC0003A480068059000BF00234822384905A83C
:10FBD00007F0A6FC054600BF2E463EB100BF35A289
:10FBE00040F229313046FEF79AF900BF00BF00BF4E
:10FBF0006A460121002007F073FC044600BF254639
:10FC00003DB100BF2BA240F22F312846FEF787F905
:10FC100000BF00BF01208DF80C000220ADF80000ED
:10FC200000BF264E304607F03DF9044600BF25468A
:10FC30003DB100BF1FA240F237312846FEF76FF9F1
:10FC400000BF00BF00BF684607F0C8FB044600BF06
:10FC500025463DB100BF17A240F23B312846FEF7D2
:10FC60005EF900BF00BF164807F0ACFB044600BFBA
:10FC700025463DB100BF0FA240F23F312846FEF7B6
:10FC80004EF900BF00BF0F4807F07EFC044600BFDE
:10FC900025463DB100BF07A240F243312846FEF79A
:10FCA0003EF900BF00BF06B070BD0000F08B02003F
:10FCB000202400206D61696E2E630000E81F002083
:10FCC000ADF70100417B020010B5A2B02FA0006883
:10FCD00004902FA0006803902EA0006802902EA030
:10FCE0000068019000201E901F90209021902B48CA
:10FCF0001E9001208DF87C0000208DF87E001EA94A
:10FD00002748FFF7F1FA044614B1204622B010BD8F
:10FD1000642105A8FCF742FD2248059000201890B8
:10FD20000620ADF81800204907910621ADF82010F3
:10FD30001E4909910621ADF828101D490B9105A80F
:10FD40000021ADF830100420ADF8340004A90E9164
:10FD50000421ADF83C1003A91091042105A80186E7
:10FD600002A912910321018701A9149155220221B0
:10FD700015A8FCF70CFD05A90E48FFF755FD044634
:10FD80000CB12046C2E70020C0E7000001010101DC
:10FD90000202020203030303040404007553020079
:10FDA00068240020CD560200082000200E200020EC
:10FDB00014200020A424002010B504462146044845
:10FDC000FFF70EFB21460348FFF7AAFE10BD000017
:10FDD00068240020A42400207CB50446A1786A464B
:10FDE0000D4806F0D3FA0546ADB96178C1EBC10103
:10FDF0000A4A02EB81001C231A46694606F002FCFF
:10FE000005460748807A074951F820202146684670
:10FE10009047054600BF7CBD6C21002028C900200A
:10FE200074C90020188E0200F8B50646082000901C
:10FE300001236A4624493046AADF04462348006865
:10FE40008047B12044DF044600BF254635B100BFDE
:10FE50001FA28D212846FEF762F800BF00BF11DF08
:10FE6000044600BF254635B100BF19A2902128469F
:10FE7000FEF755F800BF00BF4FF01021486913DFAF
:10FE8000044600BF254635B100BF11A29321284684
:10FE9000FEF745F800BF00BF304601F073FD1620A5
:10FEA000002807DB00F01F0201219140164A430998
:10FEB00042F8231000BF03F045FF4FF010214869BE
:10FEC00000F024F8F8BD000010D00020E42100204C
:10FED000636F6D706F6E656E74735C6C6962726176
:10FEE000726965735C626F6F746C6F616465725F79
:10FEF0006466755C6466755F6170705F68616E648E
:10FF00006C65722E6300000080E200E010B50446CC
:10FF10002046FCF733FB10BD70B505460C460026A5
:10FF20000948056044B1204607F046FC064600BF7C
:10FF30000EB1304670BD00BF0448006810B9FDF72F
:10FF400082FE06463046F5E72C21002030210020B5
:10FF500070B505462888102802D011282CD115E04C
:10FF60001748006860B901F00FFA044600BF34B1C9
:10FF70001448006818B1204612490968884700BF34
:10FF80000F480068401C0E49086016E00C480068E5
:10FF9000401E0B4908600846006860B9FDF753FE33
:10FFA000044600BF34B10748006818B1204605492F
:10FFB0000968884700BF00E000BF00BF70BD0000B7
:10FFC000302100202C21002010B5032000F042FC3D
:10FFD000044600BF1CB1062C01D0204610BD00BF56
:10FFE0000020FBE72DE9F04105460F464FF00008E1
:10FFF000002400E0641C042C04D22A4850F8240099
:020000040002F8
:10000000A842F7D1042C41D227B3012F02D0022FEE
:100010003BD133E004EB4400234911F8008004EBAA
:1000200044000844407868B12048006800EB800034
:1000300041001F4A1F480068FEF77CF806460EB9CB
:100040001B48057004EB44001749084480781A499E
:1000500008551AE017480068FEF798F81648005D42
:1000600004EB4401104A11448978884205D104EB1D
:1000700044001146084490F8028006E004EB440076
:100080000949084490F8018000BF00BFB8F1000F93
:1000900006D00A48006818B14046084909688847F0
:1000A000BDE8F081D48D0200DCC6002014210020C0
:1000B00024210020D08D02002521002020210020B5
:1000C00010B50246042A0ED2094B1B68D843094BCF
:1000D00013F822400123A34003400BB1012300E0A9
:1000E00000230B7001E000200870002010BD00000C
:1000F00010050050D48D020070B50546042D06D0C1
:10010000072D18D00A2D28D107F01EF926E013215B
:100110001348008876DF0446082C0BD000BF264623
:100120003EB100BF0FA24FF456713046FDF7F7FE07
:1001300000BF00BF12E0FEF715FF0446082C0BD0ED
:1001400000BF26463EB100BF06A24FF458713046AC
:10015000FDF7E5FE00BF00BF00E000BF00BF70BDBF
:10016000FA1F00206D61696E2E63000030B50346F2
:100170000020042B23D2012A07D1012903D103F146
:100180000D04E4B200E00024224679B1012902D036
:10019000022911D104E003EB43040A4D2A550DE076
:1001A00003EB4304074D2C44627007E003EB430468
:1001B000044D2C44A27001E0072000BF00E007209E
:1001C00030BD0000DCC6002070B50446002505489F
:1001D000007800F0010018B1204600F06DF80546E7
:1001E000284670BD182100202DE9F04105460E4635
:1001F0009046002425480660254805602548C0F83B
:10020000008005F00200F8B1002706E00122114647
:100210003846FFF7ABFF04467F1C042F01D2002CA9
:10022000F4D02CB9720804211B48FDF7C1FD044627
:1002300014B9FDF7A7FD04462CB9184A0021184847
:10024000FDF7FEFE044600BF05F0010068B100BFE7
:100250004FF4F010134908600020091D086000BF2A
:100260004FF4F0100F49103108602CB90E4A0021EC
:100270000E48FDF7E5FE04462CB90D4A01210D4854
:10028000FDF7DEFE04462046BDE8F0811421002083
:100290001821002020210020E48D0200A508020082
:1002A000D08D0200080500502D400200C88D0200CC
:1002B00061DD0100CC8D02002DE9F04104460026ED
:1002C0000025182C7DD2DFE804F00C1D1E68B4EE6A
:1002D000EDECEBEAE9E8E7E6E5E4E3E2E1E0DFDEC6
:1002E000DDDC00BFFD4801684FF4F010884300F4E6
:1002F000F010FB4908600020091D086000BFF948A4
:10030000047098E200BF00BFF44801684FF4E010A9
:10031000884300F4F010F24908600020091D0860CD
:1003200000BFEF48001F006880F4F01000F40030B8
:1003300088B100BF4FF40030091F08600020091D7C
:10034000086000BF022C02D14FF4E16001E04FF4DD
:100350007A60054610E000BF4FF40030E049091D07
:1003600008600020091F086000BF022C01D1C820CE
:1003700001E04FF4C8700546DA4804706420B5FB0C
:10038000F0F0D949096800FB01F700223946D74847
:100390000068FDF7CFFE06464DE200BFCF4801687A
:1003A0004FF4E010884300F4F010CD4908600020BD
:1003B000091D086000BFCA48001F006880F4F010E3
:1003C00000E037E200F4003088B100BF4FF40030A5
:1003D000091F08600020091D086000BF032C02D11E
:1003E0004FF4487001E04FF47A60054610E000BF1A
:1003F0004FF40030BA49091D08600020091F086049
:1004000000BF032C01D1C82001E04FF4C87005469D
:10041000B44804706420B5FBF0F0B349096800FBF0
:1004200001F700223946B1480068FDF783FE064611
:1004300001E200BFA94801684FF4E010884300F4CE
:10044000F010A74908600020091D086000BFA448FB
:10045000001F006880F4F01000F4003020B300BFEB
:100460004FF40030091F08600020091D086000BF1C
:10047000042C02D14FF47A6001E04FF47A60054613
:1004800024E0CBE1C9E1B3E19DE187E179E13FE11E
:100490003DE13BE139E137E12AE105E1EDE0D3E07F
:1004A000BBE0A1E06CE022E000BF4FF400308C49DB
:1004B000091D08600020091F086000BF042C02D13C
:1004C0004FF4C87001E04FF4C870054685480470C9
:1004D0006420B5FBF0F08449096800FB01F70022B5
:1004E000394682480068FDF725FE0646A3E100BFB5
:1004F0007A4801684FF4E010884300F4F01078491E
:1005000008600020091D086000BF7548001F0068D2
:1005100080F4F01000F4003080B100BF4FF40030E0
:10052000091F08600020091D086000BF052C01D1CB
:10053000C82001E04FF47A60054610E000BF4FF498
:1005400000306749091D08600020091F086000BFCE
:10055000052C01D1C82001E04FF4C8700546614860
:1005600004706420B5FBF0F05F49096800FB01F7F7
:10057000002239465D480068FDF7DCFD06465AE179
:1005800000BF564801684FF4E010884300F4F010B3
:10059000534908600020091D086000BF5048001F33
:1005A000006880F4F01000F4003040B100BF4FF458
:1005B0000030091F08600020091D086009E000BF25
:1005C0004FF400304649091D08600020091F0860EB
:1005D00000BF444804704448002201684348006852
:1005E000FDF7A8FD064626E100BF3C4801684FF430
:1005F000E010884300F4F010394908600020091D1C
:10060000086000BF00BF4FF4003008600020091FE1
:10061000086000BF334804700DE100BF3049091F76
:1006200008684FF4802181432D4A116000F4802135
:10063000121D116000BF2C48002201682B48006881
:10064000FDF778FD0646F6E000BF2549091F08685A
:100650004FF480218143224A116000F48021121D51
:10066000116000BF2048006800EB800100221F4895
:100670000068FDF75FFD0646DDE000BF1849091F71
:1006800008684FF480218143154A116000F48021ED
:10069000121D116000BF1448002201681348006851
:1006A000FDF748FD0646C6E000BF0D49091F086872
:1006B0004FF4802181430A4A116000F48021121D09
:1006C000116000BF0848006800EB80010022074865
:1006D0000068FDF72FFD0646ADE000001C2100205C
:1006E000080500501021002014210020C88D0200B0
:1006F00000BF4FF4F010524908600020091F086045
:1007000000BF5048047096E000BF00BF00BF00BFAC
:100710004D480068FDF73AFD0646C4F111050DB3DA
:1007200006BB4FF4002049490860012D0FD9C820AD
:1007300068436421B0FBF1F04549096800FB01F70B
:100740000022394640480068FDF7F4FC064600BF29
:100750003E48006800F4F010394908600020091F85
:1007600008600DE000BF3948006800F4F01034491B
:10077000091F08600020091D086000BF3349086098
:1007800059E000BF4FF4F0102D49091F0860002008
:10079000091D086000BF2B4804704CE000BF4FF4F7
:1007A000E0102749091F08600020091D086000BFEC
:1007B00000BF4FF4003008600020091F086000BF30
:1007C0002048047037E000BF4FF4D0101C49091FC7
:1007D00008600020091D086000BF00BF4FF48020A2
:1007E00008600020091F086000BF1648047022E05E
:1007F00000BF4FF4C0101249091F08600020091DF6
:10080000086000BF00BF4FF4C02008600020091F2F
:10081000086000BF0B4804700DE000BF00BF4FF43C
:10082000F010074908600020091F086000BF054854
:10083000047000E000BF00BF3046BDE8F08100005A
:100840000C05005010210020CC8D02001C2100203E
:100850001421002030B5024600201AE00F4C54F855
:100860002040A40004F1A044D4F8001701248440DF
:1008700014400CB1032400E00024234621F440314D
:1008800041EA0341064C054D55F8205044F8251027
:10089000401C0428E2D3002030BD0000D48D0200AB
:1008A0000007005010B5044620780221FFF79AFB9C
:1008B00010BD0000F8B50546164A40F6CD410320AC
:1008C000FFF792FC044600BF26463EB100BF12A2CD
:1008D0004FF472713046FDF722FB00BF00BF69463E
:1008E0000020FFF719FB044600BF26463EB100BFBB
:1008F00009A240F2CB313046FDF711FB00BF00BF2B
:100900009DF80000022801D1012000E0002028709D
:10091000F8BD0000F90002006D61696E2E630000F1
:1009200070B504461548C07A2178884208D02578E9
:100930002A460C21572007F04FFD21780F48C1723D
:100940000E48407BA178884208D0A5782A460D2120
:10095000572007F041FDA178084841730748007B04
:100960006178884208D065782A460E21572007F022
:1009700033FD61780148017370BD00002D20002017
:1009800070B505462548407818B329782348817109
:10099000807906280CD2DFE800F00B030406070973
:1009A00000BF032406E000BF042403E0052401E0A7
:1009B000052400BF00BF1948C078A04208D01748DE
:1009C000C47003F099FF052004F0DAF803F078FD15
:1009D00000BF1248807A00B31048C07B6978884213
:1009E0001BD069780D48C173C07B642803D10221F4
:1009F0000A4881730AE00948C07B502803D10421CA
:100A00000648817302E008210448817305F0D6FA94
:100A1000052004F0B5F805F063F870BD2D20002026
:100A200010B504461048007948B10F48407900F0ED
:100A30001800617801F0180108430B4948710A4811
:100A4000407848B10848807800F01800217801F01B
:100A5000180108430449887003F04EFF052004F094
:100A60008FF803F02DFD10BD2D2000204FF0FF3139
:100A7000054A42F82010082804DBFF23A0F10801F2
:100A8000503253547047000098C900200146024874
:100A900050F821007047000098C900202DE9F04F60
:100AA00003460C464FF0FF390AB1002000E0082051
:100AB00084460AB1082000E00C208046614624E00C
:100AC000154850F82100401CF0B91D46084627463D
:100AD00016464FFA80FBDFF840A00AF1300A0AF808
:100AE00005B0DFF834A04AF820704EB94FFA85FB04
:100AF000A0F1080ADFF820E00EF1500E0EF80AB05F
:100B000000BF4FFA81F902E0491C4145D8D300BF2C
:100B10004846BDE8F08F000098C900200146014812
:100B200040567047C8C9002070B590B006460C46C4
:100B30001546A07818B901208DF80E0002E0A078C3
:100B40008DF80E002088ADF80C0000200290207C6B
:100B500002A906F099FB607C0DF1090106F094FBF7
:100B6000A07B08B1012000E000209DF80A1060F38E
:100B7000C3018DF80A10E07B08B1012000E00020DD
:100B80009DF80A1060F304118DF80A10207B08B15B
:100B9000012000E000209DF80A1060F300018DF8AC
:100BA0000A10E07C08B1022000E001209DF80A1044
:100BB00060F342018DF80A101C2109A8FBF7EEFD35
:100BC000607BC0F3001018B9607BC0F34010F8B12F
:100BD00000200090A07C0DF1010106F055FB00BF44
:100BE0009DF8000020F00F00401C8DF800009DF8DB
:100BF000000020F0F00010308DF8000000BF9DF8DC
:100C0000020020F00600801C8DF80200CDF838D0DC
:100C1000607B8DF82400142104A8FBF7BFFD03A816
:100C2000049002A80590A088ADF81C00A06820B12F
:100C3000E088ADF81800A06808906069002849D0E5
:100C40000020019060690088ADF82C006069408840
:100C5000ADF82E00606940680A9001A80D906169A6
:100C6000087B01A906F010FB6169487B0DF10501C5
:100C700006F00AFB6069807A08B1012000E00020DC
:100C80009DF8061060F3C3018DF806106069C07A04
:100C900008B1012000E000209DF8061060F3041167
:100CA0008DF806106069007A08B1012000E000208C
:100CB0009DF8061060F300018DF806106069807BD6
:100CC00008B1022000E001209DF8061060F3420107
:100CD0008DF80610A06908B1A0690C902B4604AAF3
:100CE00009A93046A2DF10B070BD00002DE9F84F11
:100CF0003A48007800EB80013848001D00EB810481
:100D0000E668A06800EB4000354901EB8000B0F8D0
:100D10000890A06800EB400001EB8000B0F80AA04A
:100D2000A06800EB400001EB80004068009005F0F7
:100D30001CFCB6FBF0F100FB116008B9012000E0DB
:100D400000208046009809FB0A0760883044A1888B
:100D50004518002023490860B8F1000F04D005F0C1
:100D600004FC6188884209D0B8F1000F03D0BD426D
:100D700001D1A08810B1A068022809D105F0F5FBC7
:100D8000B6FBF0F018490860032006F011FB22E0E2
:100D900005F0EBFBA1883144B1FBF0F200FB12102F
:100DA00080081249086005F0E0FBB5FBF0F100FB9C
:100DB000115008B9012000E000208346BD4206D052
:100DC000BBF1000F03D1B9B2A8B206F0D1FE0220E8
:100DD00006F0EEFA00BFBDE8F88F000050CA002010
:100DE0001CCB002090210020942100208C21002089
:100DF00010B50848007800EB80010648001D00EBA4
:100E000081042078042802D000F0BAF801E006F04E
:100E100027FE10BD50CA002010B50F48007800EB27
:100E200080010D48001D00EB810460880B490860BB
:100E30002078012804D0032805D0042809D105E032
:100E400006F00EFE06E0FFF751FF03E007F038FD65
:100E500000E000BF00BF10BD50CA0020A02100204C
:100E600010B50348407808B1FFF7D6FF10BD000069
:100E700050CA0020002200EB8003114901F8232012
:100E800000EB800301EB83014A80012200EB800329
:100E90000B4901EB83018A60002200EB80030849C3
:100EA00001EB8301CA6000EB8003054901EB83017C
:100EB0000A6100EB8003024901EB83018A807047DD
:100EC00054CA00202DE9F04706460F469046994641
:100ED000DDF820A0204840780A2839D01E48007844
:100EE0001D49497844180A2C00D30A3C04EB8401BC
:100EF0001948001D00F8216004EB840100EB81001B
:100F0000C0F8108004EB84011348001D00EB810041
:100F1000D7E90012C0E9021204EB84010E48001D5B
:100F200000EB8100A0F8029004EB84010A48001D48
:100F300000EB8100A0F804A007484078401C064957
:100F400048700648007808B9FFF766FF002500E002
:100F500004252846BDE8F08750CA002088210020DB
:100F600010B50020054908704870002403E02046B1
:100F7000FFF780FF641C0A2CF9D310BD50CA002073
:100F800010B50848007800EB80020648001D00EB11
:100F900082010020FDF728F800F006F8002006F096
:100FA00007FA10BD50CA002010B509490878FFF7AC
:100FB00061FF07484078401E0549487008460078A0
:100FC000401CC0B208700A2801D10020087010BD72
:100FD00050CA00202DE9F04782461F4800680028CB
:100FE00036D01D480068056805F0B2FE07461B486C
:100FF00004682146384606F0E1FDC61C1848007812
:1010000008B905F0B7FEAE4201D2284600E03046EE
:10101000044424F07F44204605F094FE05F098FE39
:1010200080463946404606F0C9FD00F103093946BD
:10103000204606F0C3FD814509D905F089FE8146A9
:1010400005F080FE2F20FBF75DFA06F023FF01E09C
:1010500005F0AEFEBDE8F087C4210020C8210020C5
:10106000DC21002008B50146002000220092334A0E
:10107000527822B19DF8002042F0010200922F4ADE
:10108000927A22B19DF8002042F0020200922B4A8F
:10109000527A22B19DF8002042F004020092274AC1
:1010A000127922B19DF8002042F0080200929DF8CA
:1010B00000300B54421CD0B2204AD27A00929DF8E4
:1010C00000300B54421CD0B21C4A127B00929DF897
:1010D00000300B54421CD0B2184A527B00929DF84B
:1010E00000300B54421CD0B2144A927900929DF801
:1010F00000300B54421CD0B2104AD27B00929DF8B3
:1011000000300B54421CD0B20C4A527900929DF828
:1011100000300B54421CD0B2084A927800929DF8DD
:1011200000300B54421CD0B2044A127800929DF851
:1011300000300B54421CD0B208BD00002D2000200E
:1011400001460888062808DB0888B0F5486F06DDE8
:1011500008884FF6FF72904201D0072070474888F8
:10116000062808DB4888B0F5486F06DD48884FF64A
:10117000FF72904201D00720F0E708884FF6FF7217
:10118000904208D04888904205D008884A8890420A
:1011900001DD0720E2E70020E0E72DE9F041064607
:1011A0000D46144698462088801D404502D90C20E3
:1011B000BDE8F0813046FFF7C3FF074600BF0FB11F
:1011C0003846F5E700BF0520218868542088401C78
:1011D00020801220218868542088401C208022888A
:1011E0005119308807F050FB21880844208022885C
:1011F0005119708807F048FB21880844208000209E
:10120000D6E7000010B5044600BF04A240F27B21DF
:101210002046FCF784FE00BF10BD00006D61696EC2
:101220002E630000F0B52DED048B87B01C216846BD
:10123000FBF7B4FA002000904FF4203001904FF4F7
:101240007020029003208DF80C000020ADF80E00F5
:101250008DF810001F4805901F4806906846FEF75D
:10126000E3F8044600990888FBF72BFB41EC190BC7
:101270009FED1A0B53EC102BFBF7B1FA41EC180B56
:10128000FBF72CFB86B200994888FBF71AFB41EC70
:10129000190B9FED120B53EC102BFBF7A0FA41EC4E
:1012A000180BFBF71BFB87B23B4632460DA1002013
:1012B00002F0CCFF00BF25463DB100BF0FA24FF4A6
:1012C00026712846FCF72BFE00BF00BF07B0BDEC1F
:1012D000048BF0BD695402000512020000000000FA
:1012E0000000F43F4D696E3A2025756D73094D611C
:1012F000783A2025756D730D0A0000006D61696EE6
:101300002E63000038B51B4802F0ECFD20BB1A48E4
:10131000007848B119484069E8B1002000901748AA
:1013200041696846884716E01548007810B91348A7
:10133000456801E011488568002229461148006887
:10134000FCF7F8FE044634B10C48806918B10B482C
:1013500081692046884709E00848406930B101208A
:101360000090064841696846884700BF002002494E
:10137000087038BD60210020682100200CC80020C2
:101380005C210020048E020010B5012200210846D5
:10139000FEF7ECFE044600BF1CB1072C01D020462E
:1013A00010BD00BF072202210120FEF7DFFE044628
:1013B00000BF1CB1072C01D02046F1E700BF04227A
:1013C00002210020FEF7D2FE044600BF1CB1072C0C
:1013D00001D02046E4E700BF0020E1E770B50346F6
:1013E0000C460820002117E001EB41050C4E06EBEE
:1013F0008505AD7A254075B14FF6FF75AB4206D035
:1014000001EB410506EB85052D899D4202D1116056
:10141000002003E00520491C0029E5D000BF70BD75
:1014200068C90020012100EB40020D4B03EB820252
:1014300091724FF6FF7100EB400203EB82021181C3
:10144000FF2100EB400203EB8202D17200EB40016E
:101450001A4602EB810100220A608A808A71704775
:1014600068C9002010B51A48007800F0080058BB81
:1014700018480068401C174908601748006818B1F0
:10148000042006F053FB21E002F03EFD18B10220DB
:1014900006F04CFB1AE01148006890B10C48007847
:1014A00000F0010048B90A48006840F0010008490E
:1014B0000860002006F03AFB08E0032006F036FB47
:1014C00004E006F007FB01E006F014FB10BD00008D
:1014D000A4210020942100208C21002090210020B4
:1014E00010B50B48007800F0080070B90848007883
:1014F00000F0020028B10648006840F001000449ED
:101500000860022006F012FB01E006F0F3FA10BDBD
:10151000A42100202DE9F0478146002532E01C4837
:10152000006800EBC5042178012000FA01F6194893
:101530000068304020B317480068B0431549086080
:10154000207803F02DFC07462178012088401249BD
:1015500009680840217807FA01F188420FD16078C4
:10156000012800D100E00020784080F00108606888
:1015700020B108F0FF0120786268904700BF00BFEB
:10158000681CC5B2054800788542C8DBBDE8F08715
:10159000A8210020B8210020B4210020AC21002087
:1015A0002DE9FC4104460D46A1786A462B4804F01B
:1015B000EDFE0746002F4ED1607800EB4000284931
:1015C00001EB8000807A00F04000402801D0022D1D
:1015D00001D1244E04E0012D01D1234E00E0234E21
:1015E000A078C0EBC000224A02EB800100231C223D
:1015F0006846B0470746EFB9022D1BD0607800EB74
:101600004000174901EB8000807A20F040006178AB
:1016100001EB4101124A02EB810188726078C0EB54
:10162000C000144A02EB80011C231A466846B047EA
:10163000074600BF022D0ED0207800EB40000E4977
:1016400001EB8000807A0D4951F820202146684640
:101650009047074600BFBDE8FC8100006C210020D8
:1016600068C900202D69020009680200F1790200B2
:1016700064C8002028C9002074C90020088E020018
:1016800070B503460A4648F24300002135E0C1EB3D
:10169000C1041C4D05EB8404A47EFF2C2CD11478CE
:1016A000022C18D0C1EBC10405EB8404A47E24F005
:1016B0000204C1EBC105134E06EB8505AC76C1EB08
:1016C000C104354605EB8404156825619588A5821B
:1016D0009579A5750DE0C1EBC1040A4D05EB8404B5
:1016E000A47E24F00104C1EBC105064E06EB85057E
:1016F000AC761970002002E0491C0729C7D300BF4F
:1017000070BD000064C800202DE9F04105460E467A
:1017100017464FF0050800241AE03DB9C4EBC40099
:101720000E4901EB8000008BB8420CD07DB1C4EBB8
:10173000C4010A4A02EB810101F110000722294687
:10174000FBF737F818B934604FF0000802E0641C6A
:10175000072CE2D300BF4046BDE8F08164C80020FA
:101760007CB50546A9B26A46074804F00FFE044658
:1017700044B97421684604F059FE044614B9284659
:1017800004F038F920467CBD6C2100202DE9F041A1
:1017900007460D46144600BF26463EB100BF08A2CC
:1017A00040F272313046FCF7BAFB00BF00BF287828
:1017B000152802D13846FCF74FFB0020BDE8F08128
:1017C0006D61696E2E6300007FB50546039504F0D8
:1017D000D1FE044600BF26463EB100BF2FA24FF403
:1017E00063713046FCF79BFB00BF00BF03A801F00C
:1017F0006FF8044600BF26463EB100BF27A240F264
:101800008F313046FCF78BFB00BF00BF0020CDF8C6
:1018100005008DF809009DF8050020F00100401C2E
:101820008DF805009DF8050020F002008DF80500F8
:101830009DF8050020F004008DF805009DF80500D6
:1018400020F008008DF805009DF8050020F07000DC
:1018500030308DF805009DF8050020F080008DF8EF
:10186000050007218DF8061010218DF807100D488E
:10187000009001208DF8040069460B4801F058FAE9
:10188000044600BF26463EB100BF04A240F29F318D
:101890003046FCF744FB00BF00BF7FBD6D61696E41
:1018A0002E6300008D170200F91F002031B5084992
:1018B000684600F0B5FB044600BF254635B100BFC1
:1018C00004A2BF212846FCF72AFB00BF00BF38BD99
:1018D000E8210020636F6D706F6E656E74735C6CD1
:1018E00069627261726965735C626F6F746C6F615B
:1018F0006465725F6466755C6466755F6170705F75
:1019000068616E646C65722E630000002DE9F04121
:1019100004460D46287818B92088FEF785FA11E0AC
:10192000032201212046FDF7FBFE064600BF374695
:1019300037B100BF05A2AD213846FCF7F0FA00BF71
:1019400000BF00BF00BFBDE8F0810000636F6D7095
:101950006F6E656E74735C6C6962726172696573D7
:101960005C626F6F746C6F616465725F6466755CF6
:101970006466755F6170705F68616E646C65722E1D
:101980006300000070B58AB00646002003903E490F
:10199000304600F05BFF0446002C73D104A93A489E
:1019A00000F0E0FE0446002C4ED100BF254635B1C4
:1019B00000BF36A256212846FCF7B1FA00BF00BF8F
:1019C0004049089802690A60828A8A80807D88710D
:1019D00010223C48C01D0899FAF7C7FE1122394869
:1019E00018300499FAF7C1FE36481230049951F8BC
:1019F000122F82614A68C26109890184123800DFAE
:101A0000044600BF254635B100BF20A25E2128460E
:101A1000FCF785FA00BF00BF01200390042001906D
:101A200003A80290002000906946174800F070FA61
:101A3000044600BF254635B100BF14A266212846E2
:101A4000FCF76DFA00BF1DE01E490F4800F0C4FF0F
:101A5000044600BF254635B100BF0CA26C212846C4
:101A6000FCF75DFA00BF00BF164800DF044600BF68
:101A7000254635B100BF05A26F212846FCF74FFA75
:101A800000BF00BF0AB070BDE8210020636F6D7019
:101A90006F6E656E74735C6C696272617269657396
:101AA0005C626F6F746C6F616465725F6466755CB5
:101AB0006466755F6170705F68616E646C65722EDC
:101AC00063000000DCCF002070470000014908607F
:101AD00070470000E421002010B58EB004461C21A0
:101AE00007A8FAF75BFE9DF81C0020F008000830FC
:101AF0008DF81C009DF81C0020F0100010308DF8AF
:101B00001C00002008900A900B900C900D90A0797A
:101B10008DF8060041F23150ADF80400002000902D
:101B200000BF9DF8000020F00F008DF800009DF828
:101B3000000020F0F0008DF8000000BF00BF9DF80D
:101B4000010020F00F00401C8DF801009DF80100FD
:101B500020F0F00010308DF8010000BF9DF8020069
:101B600020F00600801C8DF802009DF8020020F095
:101B700008008DF802009DF8020020F010001030DF
:101B80008DF802009DF8020020F00100401C8DF845
:101B90000200142102A8FAF701FE01A80290CDF874
:101BA0000CD00020ADF81000ADF812001720ADF8F1
:101BB000140000200690A08804F1100302AA07A9CF
:101BC000A2DF0EB010BD10B58EB004461C2107A8D0
:101BD000FAF7E4FD9DF81C0020F00400001D8DF8CC
:101BE0001C00002008900A900B900C900D90A0799A
:101BF0008DF8060041F23250ADF80400002000904C
:101C000000BF9DF8000020F00F008DF800009DF847
:101C1000000020F0F0008DF8000000BF00BF9DF82C
:101C2000010020F00F00401C8DF801009DF801001C
:101C300020F0F00010308DF8010000BF9DF8020088
:101C400020F00600801C8DF802009DF8020020F0B4
:101C500008008DF802009DF8020020F010008DF8B9
:101C600002009DF8020020F00100401C8DF80200E7
:101C7000142102A8FAF792FD01A80290CDF80CD029
:101C80000020ADF81000ADF812001420ADF81400DB
:101C900000200690A08804F1080302AA07A9A2DF89
:101CA0000EB010BD30B58FB004460D461C2108A8FB
:101CB000FAF774FD9DF8200020F00200801C8DF8DA
:101CC0002000002009900B900C900D900E90A079B0
:101CD0008DF80A0041F23450ADF808000020019060
:101CE00000BF9DF8040020F00F00401C8DF8040098
:101CF0009DF8040020F0F00010308DF8040000BFC3
:101D000000BF9DF8050020F00F008DF805009DF83C
:101D1000050020F0F0008DF8050000BF9DF80600DA
:101D200020F00600801C8DF806009DF8060020F0CB
:101D300008008DF806009DF8060020F010008DF8D0
:101D400006009DF8060020F00100401C8DF80600FA
:101D5000142103A8FAF722FD02A8039001A8049019
:101D60000220ADF814000020ADF816000220ADF8F6
:101D700018000795A08804F1200303AA08A9A2DF90
:101D80000FB030BD3EB5044600BF2548007810B9FD
:101D900048F208003EBD00BF14B948F20E00F9E752
:101DA00000BF2078012806DA207800EB40001D49AA
